{
  "contractName": "RefundContract",
  "abi": [
    {
      "inputs": [],
      "stateMutability": "nonpayable",
      "type": "constructor"
    },
    {
      "inputs": [
        {
          "internalType": "address",
          "name": "",
          "type": "address"
        }
      ],
      "name": "empContractStatus",
      "outputs": [
        {
          "internalType": "int8",
          "name": "latitude",
          "type": "int8"
        },
        {
          "internalType": "int8",
          "name": "longitude",
          "type": "int8"
        },
        {
          "internalType": "int8",
          "name": "maxRadius",
          "type": "int8"
        },
        {
          "internalType": "uint8",
          "name": "payment",
          "type": "uint8"
        },
        {
          "internalType": "uint8",
          "name": "compCount",
          "type": "uint8"
        },
        {
          "internalType": "uint8",
          "name": "reqAmount",
          "type": "uint8"
        }
      ],
      "stateMutability": "view",
      "type": "function"
    },
    {
      "inputs": [],
      "name": "employeer",
      "outputs": [
        {
          "internalType": "address",
          "name": "",
          "type": "address"
        }
      ],
      "stateMutability": "view",
      "type": "function"
    },
    {
      "inputs": [
        {
          "internalType": "uint256",
          "name": "",
          "type": "uint256"
        }
      ],
      "name": "employees",
      "outputs": [
        {
          "internalType": "address",
          "name": "",
          "type": "address"
        }
      ],
      "stateMutability": "view",
      "type": "function"
    },
    {
      "inputs": [
        {
          "internalType": "int8",
          "name": "_latitude",
          "type": "int8"
        },
        {
          "internalType": "int8",
          "name": "_longitude",
          "type": "int8"
        }
      ],
      "name": "updateCompCountStatus",
      "outputs": [],
      "stateMutability": "nonpayable",
      "type": "function"
    },
    {
      "inputs": [
        {
          "internalType": "address payable",
          "name": "_to",
          "type": "address"
        }
      ],
      "name": "payEmployee",
      "outputs": [],
      "stateMutability": "payable",
      "type": "function"
    },
    {
      "inputs": [
        {
          "internalType": "address",
          "name": "_empAddr",
          "type": "address"
        },
        {
          "internalType": "int8",
          "name": "_latitude",
          "type": "int8"
        },
        {
          "internalType": "int8",
          "name": "_longitude",
          "type": "int8"
        },
        {
          "internalType": "int8",
          "name": "_maxRadius",
          "type": "int8"
        },
        {
          "internalType": "uint8",
          "name": "_payAmount",
          "type": "uint8"
        },
        {
          "internalType": "uint8",
          "name": "_reqAmount",
          "type": "uint8"
        }
      ],
      "name": "setEmployeeAccount",
      "outputs": [],
      "stateMutability": "nonpayable",
      "type": "function"
    },
    {
      "inputs": [],
      "name": "getAdmin",
      "outputs": [
        {
          "internalType": "address",
          "name": "",
          "type": "address"
        }
      ],
      "stateMutability": "view",
      "type": "function"
    },
    {
      "inputs": [],
      "name": "getEmployees",
      "outputs": [
        {
          "internalType": "address[]",
          "name": "",
          "type": "address[]"
        }
      ],
      "stateMutability": "view",
      "type": "function"
    }
  ],
  "bytecode": "0x608060405234801561000f575f80fd5b503360015f6101000a81548173ffffffffffffffffffffffffffffffffffffffff021916908373ffffffffffffffffffffffffffffffffffffffff16021790555061164a8061005d5f395ff3fe60806040526004361061007a575f3560e01c80634abefa361161004d5780634abefa36146101285780636e9960c31461015257806380def88d1461017c578063aebf11b2146101bd5761007a565b80631296428a1461007e5780631f50ad16146100a65780633c4c59df146100c25780634739326b146100ec575b5f80fd5b348015610089575f80fd5b506100a4600480360381019061009f9190610c67565b6101e5565b005b6100c060048036038101906100bb9190610d2b565b6104f0565b005b3480156100cd575f80fd5b506100d66107ae565b6040516100e39190610d65565b60405180910390f35b3480156100f7575f80fd5b50610112600480360381019061010d9190610db1565b6107d3565b60405161011f9190610d65565b60405180910390f35b348015610133575f80fd5b5061013c61080d565b6040516101499190610e93565b60405180910390f35b34801561015d575f80fd5b50610166610897565b6040516101739190610d65565b60405180910390f35b348015610187575f80fd5b506101a2600480360381019061019d9190610eb3565b6108bf565b6040516101b496959493929190610efc565b60405180910390f35b3480156101c8575f80fd5b506101e360048036038101906101de9190610f5b565b61093c565b005b60015f9054906101000a900473ffffffffffffffffffffffffffffffffffffffff1673ffffffffffffffffffffffffffffffffffffffff163373ffffffffffffffffffffffffffffffffffffffff1614610274576040517f08c379a000000000000000000000000000000000000000000000000000000000815260040161026b90611019565b60405180910390fd5b5f86908060018154018082558091505060019003905f5260205f20015f9091909190916101000a81548173ffffffffffffffffffffffffffffffffffffffff021916908373ffffffffffffffffffffffffffffffffffffffff1602179055508460025f8873ffffffffffffffffffffffffffffffffffffffff1673ffffffffffffffffffffffffffffffffffffffff1681526020019081526020015f205f015f6101000a81548160ff02191690835f0b60ff1602179055508360025f8873ffffffffffffffffffffffffffffffffffffffff1673ffffffffffffffffffffffffffffffffffffffff1681526020019081526020015f205f0160016101000a81548160ff02191690835f0b60ff1602179055508260025f8873ffffffffffffffffffffffffffffffffffffffff1673ffffffffffffffffffffffffffffffffffffffff1681526020019081526020015f205f0160026101000a81548160ff02191690835f0b60ff1602179055508160025f8873ffffffffffffffffffffffffffffffffffffffff1673ffffffffffffffffffffffffffffffffffffffff1681526020019081526020015f205f0160036101000a81548160ff021916908360ff1602179055505f60025f8873ffffffffffffffffffffffffffffffffffffffff1673ffffffffffffffffffffffffffffffffffffffff1681526020019081526020015f205f0160046101000a81548160ff021916908360ff1602179055508060025f8873ffffffffffffffffffffffffffffffffffffffff1673ffffffffffffffffffffffffffffffffffffffff1681526020019081526020015f205f0160056101000a81548160ff021916908360ff160217905550505050505050565b805f8173ffffffffffffffffffffffffffffffffffffffff163373ffffffffffffffffffffffffffffffffffffffff160361052a57600190505b5f5b5f805490508110156105c1578273ffffffffffffffffffffffffffffffffffffffff165f828154811061056257610561611037565b5b905f5260205f20015f9054906101000a900473ffffffffffffffffffffffffffffffffffffffff1673ffffffffffffffffffffffffffffffffffffffff16036105ae57600191506105c1565b80806105b990611091565b91505061052c565b5080610602576040517f08c379a00000000000000000000000000000000000000000000000000000000081526004016105f990611148565b60405180910390fd5b60025f8473ffffffffffffffffffffffffffffffffffffffff1673ffffffffffffffffffffffffffffffffffffffff1681526020019081526020015f205f0160059054906101000a900460ff1660ff1660025f8573ffffffffffffffffffffffffffffffffffffffff1673ffffffffffffffffffffffffffffffffffffffff1681526020019081526020015f205f0160049054906101000a900460ff1660ff16116106e2576040517f08c379a00000000000000000000000000000000000000000000000000000000081526004016106d9906111fc565b60405180910390fd5b5f8373ffffffffffffffffffffffffffffffffffffffff166108fc60025f8773ffffffffffffffffffffffffffffffffffffffff1673ffffffffffffffffffffffffffffffffffffffff1681526020019081526020015f205f0160039054906101000a900460ff1660ff1690811502906040515f60405180830381858888f193505050509050806107a8576040517f08c379a000000000000000000000000000000000000000000000000000000000815260040161079f90611264565b60405180910390fd5b50505050565b60015f9054906101000a900473ffffffffffffffffffffffffffffffffffffffff1681565b5f81815481106107e1575f80fd5b905f5260205f20015f915054906101000a900473ffffffffffffffffffffffffffffffffffffffff1681565b60605f80548060200260200160405190810160405280929190818152602001828054801561088d57602002820191905f5260205f20905b815f9054906101000a900473ffffffffffffffffffffffffffffffffffffffff1673ffffffffffffffffffffffffffffffffffffffff1681526020019060010190808311610844575b5050505050905090565b5f60015f9054906101000a900473ffffffffffffffffffffffffffffffffffffffff16905090565b6002602052805f5260405f205f91509050805f015f9054906101000a90045f0b90805f0160019054906101000a90045f0b90805f0160029054906101000a90045f0b90805f0160039054906101000a900460ff1690805f0160049054906101000a900460ff1690805f0160059054906101000a900460ff16905086565b5f6109478383610a54565b905060025f3373ffffffffffffffffffffffffffffffffffffffff1673ffffffffffffffffffffffffffffffffffffffff1681526020019081526020015f205f0160029054906101000a90045f0b5f0b811215610a4f57600160025f3373ffffffffffffffffffffffffffffffffffffffff1673ffffffffffffffffffffffffffffffffffffffff1681526020019081526020015f205f0160049054906101000a900460ff166109f79190611282565b60025f3373ffffffffffffffffffffffffffffffffffffffff1673ffffffffffffffffffffffffffffffffffffffff1681526020019081526020015f205f0160046101000a81548160ff021916908360ff1602179055505b505050565b5f8060025f3373ffffffffffffffffffffffffffffffffffffffff1673ffffffffffffffffffffffffffffffffffffffff1681526020019081526020015f205f015f9054906101000a90045f0b84610aac91906112b6565b5f0b90505f60025f3373ffffffffffffffffffffffffffffffffffffffff1673ffffffffffffffffffffffffffffffffffffffff1681526020019081526020015f205f0160019054906101000a90045f0b84610b0891906112b6565b5f0b9050610b38600282610b1c919061145d565b600284610b29919061145d565b610b3391906114c8565b610b42565b9250505092915050565b5f806002600184610b5391906114c8565b610b5d9190611536565b90508291505b81811215610b98578091506002808385610b7d9190611536565b610b87919061159e565b610b919190611536565b9050610b63565b50919050565b5f80fd5b5f73ffffffffffffffffffffffffffffffffffffffff82169050919050565b5f610bcb82610ba2565b9050919050565b610bdb81610bc1565b8114610be5575f80fd5b50565b5f81359050610bf681610bd2565b92915050565b5f815f0b9050919050565b610c1081610bfc565b8114610c1a575f80fd5b50565b5f81359050610c2b81610c07565b92915050565b5f60ff82169050919050565b610c4681610c31565b8114610c50575f80fd5b50565b5f81359050610c6181610c3d565b92915050565b5f805f805f8060c08789031215610c8157610c80610b9e565b5b5f610c8e89828a01610be8565b9650506020610c9f89828a01610c1d565b9550506040610cb089828a01610c1d565b9450506060610cc189828a01610c1d565b9350506080610cd289828a01610c53565b92505060a0610ce389828a01610c53565b9150509295509295509295565b5f610cfa82610ba2565b9050919050565b610d0a81610cf0565b8114610d14575f80fd5b50565b5f81359050610d2581610d01565b92915050565b5f60208284031215610d4057610d3f610b9e565b5b5f610d4d84828501610d17565b91505092915050565b610d5f81610bc1565b82525050565b5f602082019050610d785f830184610d56565b92915050565b5f819050919050565b610d9081610d7e565b8114610d9a575f80fd5b50565b5f81359050610dab81610d87565b92915050565b5f60208284031215610dc657610dc5610b9e565b5b5f610dd384828501610d9d565b91505092915050565b5f81519050919050565b5f82825260208201905092915050565b5f819050602082019050919050565b610e0e81610bc1565b82525050565b5f610e1f8383610e05565b60208301905092915050565b5f602082019050919050565b5f610e4182610ddc565b610e4b8185610de6565b9350610e5683610df6565b805f5b83811015610e86578151610e6d8882610e14565b9750610e7883610e2b565b925050600181019050610e59565b5085935050505092915050565b5f6020820190508181035f830152610eab8184610e37565b905092915050565b5f60208284031215610ec857610ec7610b9e565b5b5f610ed584828501610be8565b91505092915050565b610ee781610bfc565b82525050565b610ef681610c31565b82525050565b5f60c082019050610f0f5f830189610ede565b610f1c6020830188610ede565b610f296040830187610ede565b610f366060830186610eed565b610f436080830185610eed565b610f5060a0830184610eed565b979650505050505050565b5f8060408385031215610f7157610f70610b9e565b5b5f610f7e85828601610c1d565b9250506020610f8f85828601610c1d565b9150509250929050565b5f82825260208201905092915050565b7f4f6e6c7920656d706c6f79656572206861732061636365737320746f207468695f8201527f732066756e6374696f6e00000000000000000000000000000000000000000000602082015250565b5f611003602a83610f99565b915061100e82610fa9565b604082019050919050565b5f6020820190508181035f83015261103081610ff7565b9050919050565b7f4e487b71000000000000000000000000000000000000000000000000000000005f52603260045260245ffd5b7f4e487b71000000000000000000000000000000000000000000000000000000005f52601160045260245ffd5b5f61109b82610d7e565b91507fffffffffffffffffffffffffffffffffffffffffffffffffffffffffffffffff82036110cd576110cc611064565b5b600182019050919050565b7f4f6e6c7920616e2020656d706c6f796565206861732061636365737320746f205f8201527f746869732066756e6374696f6e5f320000000000000000000000000000000000602082015250565b5f611132602f83610f99565b915061113d826110d8565b604082019050919050565b5f6020820190508181035f83015261115f81611126565b9050919050565b7f54686520656d706c6f79656520646964206e6f742072656d61696e20696e20635f8201527f6f6d706c69616e6365207769746820616c6c207468652061677265656d656e7460208201527f732e000000000000000000000000000000000000000000000000000000000000604082015250565b5f6111e6604283610f99565b91506111f182611166565b606082019050919050565b5f6020820190508181035f830152611213816111da565b9050919050565b7f4661696c656420746f2073656e642045746865720000000000000000000000005f82015250565b5f61124e601483610f99565b91506112598261121a565b602082019050919050565b5f6020820190508181035f83015261127b81611242565b9050919050565b5f61128c82610c31565b915061129783610c31565b9250828201905060ff8111156112b0576112af611064565b5b92915050565b5f6112c082610bfc565b91506112cb83610bfc565b92508282039050607f81137fffffffffffffffffffffffffffffffffffffffffffffffffffffffffffffff808212171561130857611307611064565b5b92915050565b5f8160011c9050919050565b5f808291508390505b60018511156113635780860481111561133f5761133e611064565b5b600185161561134e5780820291505b808102905061135c8561130e565b9450611323565b94509492505050565b5f825f8114611382576001811461138c57611395565b600191505061144c565b8291505061144c565b50816113a3575f905061144c565b600190505f8213600181146113be575f81146113d6576113ea565b8286048311156113d1576113d0611064565b5b6113ea565b8286058312156113e9576113e8611064565b5b5b5060018316156113f8578190505b81820291506114068361130e565b92506114148584848461131a565b9250905081850481115f8213161561142f5761142e611064565b5b81840581125f8212161561144657611445611064565b5b81810290505b949350505050565b5f819050919050565b5f61146782611454565b915061147283610c31565b92506114c07f7fffffffffffffffffffffffffffffffffffffffffffffffffffffffffffffff7f8000000000000000000000000000000000000000000000000000000000000000858561136c565b905092915050565b5f6114d282611454565b91506114dd83611454565b92508282019050828112155f8312168382125f84121516171561150357611502611064565b5b92915050565b7f4e487b71000000000000000000000000000000000000000000000000000000005f52601260045260245ffd5b5f61154082611454565b915061154b83611454565b92508261155b5761155a611509565b5b60015f0383147f80000000000000000000000000000000000000000000000000000000000000008314161561159357611592611064565b5b828205905092915050565b5f6115a882611454565b91506115b383611454565b92508282026115c181611454565b91507f800000000000000000000000000000000000000000000000000000000000000084145f841216156115f8576115f7611064565b5b828205841483151761160d5761160c611064565b5b509291505056fea26469706673582212201b09e4290be7fc6df51b43c83ca7e755942ec85d98913d60dc479748325db18d64736f6c63430008150033",
  "immutableReferences": {},
  "source": "// SPDX-License-Identifier: SEE LICENSE IN LICENSE\r\npragma solidity ^0.8.13;\r\n\r\ncontract RefundContract {\r\n    address[] public employees;\r\n    address public employeer;\r\n\r\n    struct ContractStatus {\r\n        int8 latitude;\r\n        int8 longitude;\r\n        int8 maxRadius;\r\n        uint8 payment;\r\n        uint8 compCount;\r\n        uint8 reqAmount;\r\n    }\r\n    mapping (address => ContractStatus) public empContractStatus;\r\n    constructor() {\r\n        employeer = msg.sender;\r\n    }\r\n    \r\n    modifier onlyEmployeer() {\r\n        require(msg.sender == employeer, \"Only employeer has access to this function\");\r\n        _;\r\n    }\r\n\r\n    modifier onlyEmployee(address _addr) {\r\n\r\n        bool exists = false;\r\n\r\n        if(msg.sender == _addr){\r\n            exists = true;\r\n        }\r\n\r\n        for (uint256 i = 0; i < employees.length; i++) {\r\n            if (employees[i] == _addr) {\r\n                exists = true;\r\n                break;\r\n            }\r\n        }\r\n\r\n        require(exists, \"Only an  employee has access to this function_2\");\r\n        _;\r\n    }\r\n    \r\n    // Modifiers can take inputs. This modifier checks that the\r\n    // address passed in is not the zero address.\r\n    modifier validAddress(address _addr) {\r\n        require(_addr != address(0), \"Not valid address\");\r\n        _;\r\n    }\r\n\r\n    function getSqrt(int256 input) private pure returns (int256  output ) {\r\n        int256 temp = (input + 1) / 2;\r\n        output = input;\r\n        while (temp < output) {\r\n            output = temp;\r\n            temp = ((input / output) * 2) / 2;\r\n        }\r\n    }\r\n\r\n    function calculateDistance(int8 _latitude, int8 _longitude) private view  returns (int256 dist) {\r\n        int256 x = _latitude - empContractStatus[msg.sender].latitude;\r\n        int256 y = _longitude - empContractStatus[msg.sender].longitude;\r\n        dist = getSqrt(x**2 + y**2);\r\n        return dist;\r\n    }\r\n    function updateCompCountStatus(int8 _latitude, int8 _longitude) public {\r\n            int256 dist = calculateDistance(_latitude, _longitude);\r\n            if (dist < empContractStatus[msg.sender].maxRadius) {\r\n                empContractStatus[msg.sender].compCount = empContractStatus[msg.sender].compCount + 1;\r\n            }\r\n    }\r\n\r\n    function payEmployee(address payable _to) public payable onlyEmployee(_to) {\r\n        require(empContractStatus[_to].compCount > empContractStatus[_to].reqAmount,\"The employee did not remain in compliance with all the agreements.\");\r\n        bool sent = _to.send(empContractStatus[_to].payment);\r\n        require(sent, \"Failed to send Ether\");\r\n    }\r\n\r\n    function setEmployeeAccount(\r\n        address _empAddr,\r\n        int8 _latitude,\r\n        int8 _longitude,\r\n        int8 _maxRadius,\r\n        uint8 _payAmount,\r\n        uint8 _reqAmount\r\n        // Should also set the duration the contract will be checking for\r\n        ) public onlyEmployeer() {\r\n            employees.push(_empAddr); // should delete if it is already in the list\r\n            empContractStatus[_empAddr].latitude = _latitude;\r\n            empContractStatus[_empAddr].longitude = _longitude;\r\n            empContractStatus[_empAddr].maxRadius = _maxRadius;\r\n            empContractStatus[_empAddr].payment = _payAmount;\r\n            empContractStatus[_empAddr].compCount = 0;\r\n            empContractStatus[_empAddr].reqAmount = _reqAmount;\r\n    }\r\n\r\n    function getAdmin() public view returns(address) {\r\n        return employeer;\r\n    }\r\n    function getEmployees() public view returns(address[] memory){\r\n        return employees;\r\n    }\r\n}",
  "sourcePath": "C:\\Users\\Diriba\\Desktop\\10AC\\Week9\\Project\\GeoLogix-Ethereum-DApp\\GeoLocation_contract_ethereum\\contracts\\GeoLoc.sol",
  "compiler": {
    "name": "solc",
    "version": "0.8.21+commit.d9974bed.Emscripten.clang"
  },
  "schemaVersion": "3.4.16",
  "updatedAt": "2024-02-10T12:49:39.018Z",
  "devdoc": {
    "kind": "dev",
    "methods": {},
    "version": 1
  },
  "userdoc": {
    "kind": "user",
    "methods": {},
    "version": 1
  }
}